{
  "_format": "hh3-artifact-1",
  "contractName": "CrowdfundingFactory",
  "sourceName": "contracts/CrowdfundingFactory.sol",
  "abi": [
    {
      "anonymous": false,
      "inputs": [
        {
          "indexed": true,
          "internalType": "address",
          "name": "creator",
          "type": "address"
        },
        {
          "indexed": true,
          "internalType": "address",
          "name": "campaign",
          "type": "address"
        },
        {
          "indexed": false,
          "internalType": "string",
          "name": "name",
          "type": "string"
        },
        {
          "indexed": false,
          "internalType": "uint256",
          "name": "goal",
          "type": "uint256"
        },
        {
          "indexed": false,
          "internalType": "uint256",
          "name": "deadline",
          "type": "uint256"
        }
      ],
      "name": "CampaignCreated",
      "type": "event"
    },
    {
      "inputs": [
        {
          "internalType": "uint256",
          "name": "",
          "type": "uint256"
        }
      ],
      "name": "campaigns",
      "outputs": [
        {
          "internalType": "contract CrowdfundingCampaign",
          "name": "",
          "type": "address"
        }
      ],
      "stateMutability": "view",
      "type": "function"
    },
    {
      "inputs": [
        {
          "internalType": "string",
          "name": "_name",
          "type": "string"
        },
        {
          "internalType": "uint256",
          "name": "_goal",
          "type": "uint256"
        },
        {
          "internalType": "uint256",
          "name": "_durationInDays",
          "type": "uint256"
        }
      ],
      "name": "createCampaign",
      "outputs": [
        {
          "internalType": "address",
          "name": "",
          "type": "address"
        }
      ],
      "stateMutability": "nonpayable",
      "type": "function"
    },
    {
      "inputs": [],
      "name": "getCampaigns",
      "outputs": [
        {
          "internalType": "address[]",
          "name": "",
          "type": "address[]"
        }
      ],
      "stateMutability": "view",
      "type": "function"
    },
    {
      "inputs": [],
      "name": "getCampainCount",
      "outputs": [
        {
          "internalType": "uint256",
          "name": "",
          "type": "uint256"
        }
      ],
      "stateMutability": "view",
      "type": "function"
    },
    {
      "inputs": [
        {
          "internalType": "address",
          "name": "user",
          "type": "address"
        }
      ],
      "name": "getUserCampaigns",
      "outputs": [
        {
          "internalType": "address[]",
          "name": "",
          "type": "address[]"
        }
      ],
      "stateMutability": "view",
      "type": "function"
    },
    {
      "inputs": [
        {
          "internalType": "address",
          "name": "",
          "type": "address"
        },
        {
          "internalType": "uint256",
          "name": "",
          "type": "uint256"
        }
      ],
      "name": "userCampaigns",
      "outputs": [
        {
          "internalType": "uint256",
          "name": "",
          "type": "uint256"
        }
      ],
      "stateMutability": "view",
      "type": "function"
    }
  ],
  "bytecode": "0x6080604052348015600e575f5ffd5b50611a4a8061001c5f395ff3fe608060405234801561000f575f5ffd5b5060043610610060575f3560e01c8063141961bc1461006457806319ac74bd146100945780633020580b146100b5578063a1e5084c146100c8578063a6b03633146100e8578063e880fbc1146100f0575b5f5ffd5b61007761007236600461045c565b6100f7565b6040516001600160a01b0390911681526020015b60405180910390f35b6100a76100a236600461048e565b61011e565b60405190815260200161008b565b6100776100c33660046104ca565b610149565b6100db6100d636600461058a565b61025f565b60405161008b91906105aa565b6100db610394565b5f546100a7565b5f8181548110610105575f80fd5b5f918252602090912001546001600160a01b0316905081565b6001602052815f5260405f208181548110610137575f80fd5b905f5260205f20015f91509150505481565b5f5f3385858560405161015b9061044f565b6101689493929190610623565b604051809103905ff080158015610181573d5f5f3e3d5ffd5b505f8054600180820183557f290decd9548b62a8d60345a988386fc84ba6bc95484008f6362f93160ef3e56390910180546001600160a01b0319166001600160a01b038516179055338252602081905260408220915492935090916101e6919061066d565b81546001810183555f9283526020909220909101556001600160a01b038116337f810c1f0481c76c27bfb99d47b443b405e6f4d247fb07302759cb36d58742d07f87876102368862015180610686565b610240904261069d565b60405161024f939291906106b0565b60405180910390a3949350505050565b6001600160a01b0381165f9081526001602090815260408083208054825181850281018501909352808352606094938301828280156102bb57602002820191905f5260205f20905b8154815260200190600101908083116102a7575b505050505090505f815167ffffffffffffffff8111156102dd576102dd6104b6565b604051908082528060200260200182016040528015610306578160200160208202803683370190505b5090505f5b825181101561038c575f838281518110610327576103276106d4565b60200260200101518154811061033f5761033f6106d4565b905f5260205f20015f9054906101000a90046001600160a01b031682828151811061036c5761036c6106d4565b6001600160a01b039092166020928302919091019091015260010161030b565b509392505050565b5f80546060919067ffffffffffffffff8111156103b3576103b36104b6565b6040519080825280602002602001820160405280156103dc578160200160208202803683370190505b5090505f5b5f54811015610449575f81815481106103fc576103fc6106d4565b905f5260205f20015f9054906101000a90046001600160a01b0316828281518110610429576104296106d4565b6001600160a01b03909216602092830291909101909101526001016103e1565b50919050565b61132c806106e983390190565b5f6020828403121561046c575f5ffd5b5035919050565b80356001600160a01b0381168114610489575f5ffd5b919050565b5f5f6040838503121561049f575f5ffd5b6104a883610473565b946020939093013593505050565b634e487b7160e01b5f52604160045260245ffd5b5f5f5f606084860312156104dc575f5ffd5b833567ffffffffffffffff8111156104f2575f5ffd5b8401601f81018613610502575f5ffd5b803567ffffffffffffffff81111561051c5761051c6104b6565b604051601f8201601f19908116603f0116810167ffffffffffffffff8111828210171561054b5761054b6104b6565b604052818152828201602001881015610562575f5ffd5b816020840160208301375f602092820183015297908601359650604090950135949350505050565b5f6020828403121561059a575f5ffd5b6105a382610473565b9392505050565b602080825282518282018190525f918401906040840190835b818110156105ea5783516001600160a01b03168352602093840193909201916001016105c3565b509095945050505050565b5f81518084528060208401602086015e5f602082860101526020601f19601f83011685010191505092915050565b6001600160a01b03851681526080602082018190525f90610646908301866105f5565b6040830194909452506060015292915050565b634e487b7160e01b5f52601160045260245ffd5b8181038181111561068057610680610659565b92915050565b808202811582820484141761068057610680610659565b8082018082111561068057610680610659565b606081525f6106c260608301866105f5565b60208301949094525060400152919050565b634e487b7160e01b5f52603260045260245ffdfe60c060405234801561000f575f5ffd5b5060405161132c38038061132c83398101604081905261002e91610226565b6001600160a01b0384166100955760405162461bcd60e51b815260206004820152602360248201527f43726f776466756e64696e6743616d706169676e3a20696e76616c6964206f776044820152623732b960e91b60648201526084015b60405180910390fd5b5f8351116100f85760405162461bcd60e51b815260206004820152602a60248201527f43726f776466756e64696e6743616d706169676e3a206e616d652063616e6e6f6044820152697420626520656d70747960b01b606482015260840161008c565b5f821161015b5760405162461bcd60e51b815260206004820152602b60248201527f43726f776466756e64696e6743616d706169676e3a20676f616c206d7573742060448201526a626520706f73697469766560a81b606482015260840161008c565b5f8111801561016b5750605a8111155b6101c65760405162461bcd60e51b815260206004820152602660248201527f43726f776466756e64696e6743616d706169676e3a20696e76616c69642064756044820152653930ba34b7b760d11b606482015260840161008c565b6001600160a01b03841660805260016101df8482610388565b5060028290556101f28162015180610456565b6101fc9042610473565b60a05250505f805460ff19169055506104869050565b634e487b7160e01b5f52604160045260245ffd5b5f5f5f5f60808587031215610239575f5ffd5b84516001600160a01b038116811461024f575f5ffd5b60208601519094506001600160401b0381111561026a575f5ffd5b8501601f8101871361027a575f5ffd5b80516001600160401b0381111561029357610293610212565b604051601f8201601f19908116603f011681016001600160401b03811182821017156102c1576102c1610212565b6040528181528282016020018910156102d8575f5ffd5b8160208401602083015e5f91810160200191909152604087015160609097015195989097509350505050565b600181811c9082168061031857607f821691505b60208210810361033657634e487b7160e01b5f52602260045260245ffd5b50919050565b601f82111561038357805f5260205f20601f840160051c810160208510156103615750805b601f840160051c820191505b81811015610380575f815560010161036d565b50505b505050565b81516001600160401b038111156103a1576103a1610212565b6103b5816103af8454610304565b8461033c565b6020601f8211600181146103e7575f83156103d05750848201515b5f19600385901b1c1916600184901b178455610380565b5f84815260208120601f198516915b8281101561041657878501518255602094850194600190920191016103f6565b508482101561043357868401515f19600387901b60f8161c191681555b50505050600190811b01905550565b634e487b7160e01b5f52601160045260245ffd5b808202811582820484141761046d5761046d610442565b92915050565b8082018082111561046d5761046d610442565b60805160a051610e5b6104d15f395f818161017b015281816105e501526109c601525f8181610263015281816103ee015281816104860152818161054701526108730152610e5b5ff3fe6080604052600436106100fa575f3560e01c80634bb278f311610092578063c19d93fb11610062578063c19d93fb14610299578063c5c2019d146102be578063c5c4744c146102df578063d7bb99ba146102f4578063dc2d9af0146102fc575f5ffd5b80634bb278f31461022a578063590e1ae31461023e5780638da5cb5b14610252578063be9a655514610285575f5ffd5b80633cb5d100116100cd5780633cb5d1001461019d5780633ccfd60b146101d457806340193883146101ea57806342e94c90146101ff575f5ffd5b806306fdde03146100fe57806322f3e2d414610128578063253da8bd1461014c57806329dcb0cf1461016a575b5f5ffd5b348015610109575f5ffd5b50610112610310565b60405161011f9190610bf1565b60405180910390f35b348015610133575f5ffd5b5061013c61039c565b604051901515815260200161011f565b348015610157575f5ffd5b506005545b60405190815260200161011f565b348015610175575f5ffd5b5061015c7f000000000000000000000000000000000000000000000000000000000000000081565b3480156101a8575f5ffd5b506101bc6101b7366004610c26565b6103bb565b6040516001600160a01b03909116815260200161011f565b3480156101df575f5ffd5b506101e86103e3565b005b3480156101f5575f5ffd5b5061015c60025481565b34801561020a575f5ffd5b5061015c610219366004610c3d565b60046020525f908152604090205481565b348015610235575f5ffd5b506101e86105ad565b348015610249575f5ffd5b506101e86106db565b34801561025d575f5ffd5b506101bc7f000000000000000000000000000000000000000000000000000000000000000081565b348015610290575f5ffd5b506101e8610868565b3480156102a4575f5ffd5b505f546102b19060ff1681565b60405161011f9190610c9e565b3480156102c9575f5ffd5b506102d261092e565b60405161011f9190610cb2565b3480156102ea575f5ffd5b5061015c60035481565b6101e861098e565b348015610307575f5ffd5b5061015c610bac565b6001805461031d90610cfd565b80601f016020809104026020016040519081016040528092919081815260200182805461034990610cfd565b80156103945780601f1061036b57610100808354040283529160200191610394565b820191905f5260205f20905b81548152906001019060200180831161037757829003601f168201915b505050505081565b5f60015f5460ff1660048111156103b5576103b5610c6a565b14905090565b600581815481106103ca575f80fd5b5f918252602090912001546001600160a01b0316905081565b336001600160a01b037f000000000000000000000000000000000000000000000000000000000000000016146104345760405162461bcd60e51b815260040161042b90610d35565b60405180910390fd5b6002805f5460ff16600481111561044d5761044d610c6a565b1461046a5760405162461bcd60e51b815260040161042b90610d76565b5f805460ff191660041781556040514791906001600160a01b037f0000000000000000000000000000000000000000000000000000000000000000169083908381818185875af1925050503d805f81146104df576040519150601f19603f3d011682016040523d82523d5f602084013e6104e4565b606091505b50509050806105455760405162461bcd60e51b815260206004820152602760248201527f43726f776466756e64696e6743616d706169676e3a207769746864726177616c6044820152660819985a5b195960ca1b606482015260840161042b565b7f00000000000000000000000000000000000000000000000000000000000000006001600160a01b03167f7fcf532c15f0a6db0bd6d0e038bea71d30d808c7d98cb3bf7268a95bf5081b65836040516105a091815260200190565b60405180910390a2505050565b6001805f5460ff1660048111156105c6576105c6610c6a565b146105e35760405162461bcd60e51b815260040161042b90610d76565b7f00000000000000000000000000000000000000000000000000000000000000004210156106685760405162461bcd60e51b815260206004820152602c60248201527f43726f776466756e64696e6743616d706169676e3a2063616d706169676e206e60448201526b1bdd08195b991959081e595d60a21b606482015260840161042b565b5f5460025460035460ff909216911061068c575f805460ff19166002179055610699565b5f805460ff191660031790555b5f546040517fe8a97ea87e4388fa22d496b95a8ed5ced6717f49790318de2b928aaf37a021d8916106cf91849160ff1690610dad565b60405180910390a15050565b6003805f5460ff1660048111156106f4576106f4610c6a565b146107115760405162461bcd60e51b815260040161042b90610d76565b335f90815260046020526040902054806107865760405162461bcd60e51b815260206004820152603060248201527f43726f776466756e64696e6743616d706169676e3a206e6f20636f6e7472696260448201526f1d5d1a5bdb9cc81d1bc81c99599d5b9960821b606482015260840161042b565b335f818152600460205260408082208290555190919083908381818185875af1925050503d805f81146107d4576040519150601f19603f3d011682016040523d82523d5f602084013e6107d9565b606091505b50509050806108365760405162461bcd60e51b815260206004820152602360248201527f43726f776466756e64696e6743616d706169676e3a20726566756e64206661696044820152621b195960ea1b606482015260840161042b565b60405182815233907fbb28353e4598c3b9199101a66e0989549b659a59a54d2c27fbb183f1932c8e6d906020016105a0565b336001600160a01b037f000000000000000000000000000000000000000000000000000000000000000016146108b05760405162461bcd60e51b815260040161042b90610d35565b5f805f5460ff1660048111156108c8576108c8610c6a565b146108e55760405162461bcd60e51b815260040161042b90610d76565b5f805460ff1916600190811782556040517fe8a97ea87e4388fa22d496b95a8ed5ced6717f49790318de2b928aaf37a021d892610923929091610dad565b60405180910390a150565b6060600580548060200260200160405190810160405280929190818152602001828054801561098457602002820191905f5260205f20905b81546001600160a01b03168152600190910190602001808311610966575b5050505050905090565b6001805f5460ff1660048111156109a7576109a7610c6a565b146109c45760405162461bcd60e51b815260040161042b90610d76565b7f00000000000000000000000000000000000000000000000000000000000000004210610a2a5760405162461bcd60e51b815260206004820152601460248201527310d85b5c185a59db881a185cc8195e1c1a5c995960621b604482015260640161042b565b5f3411610a965760405162461bcd60e51b815260206004820152603460248201527f2043726f776466756e64696e6743616d706169676e3a20636f6e747269627574604482015273696f6e206d75737420626520706f73697469766560601b606482015260840161042b565b335f908152600460205260408120549003610aed57600580546001810182555f919091527f036b6384b5eca791c62761152d0c79bb0604c104a5fb6f4eb0703f3154bb3db00180546001600160a01b031916331790555b335f9081526004602052604081208054349290610b0b908490610ddc565b925050819055503460035f828254610b239190610ddc565b909155505060405134815233907f4d154d4aae216bed6d0926db77c00df2b57c6b5ba4eee05775de20facede3a7b9060200160405180910390a260025460035410610ba9575f805460ff191660029081179091556040517fe8a97ea87e4388fa22d496b95a8ed5ced6717f49790318de2b928aaf37a021d8916109239160019190610dad565b50565b5f6002545f03610bbb57505f90565b5f6002546003546064610bce9190610def565b610bd89190610e06565b905060648111610be85780610beb565b60645b91505090565b602081525f82518060208401528060208501604085015e5f604082850101526040601f19601f83011684010191505092915050565b5f60208284031215610c36575f5ffd5b5035919050565b5f60208284031215610c4d575f5ffd5b81356001600160a01b0381168114610c63575f5ffd5b9392505050565b634e487b7160e01b5f52602160045260245ffd5b60058110610c9a57634e487b7160e01b5f52602160045260245ffd5b9052565b60208101610cac8284610c7e565b92915050565b602080825282518282018190525f918401906040840190835b81811015610cf25783516001600160a01b0316835260209384019390920191600101610ccb565b509095945050505050565b600181811c90821680610d1157607f821691505b602082108103610d2f57634e487b7160e01b5f52602260045260245ffd5b50919050565b60208082526021908201527f4f6e6c79206f776e65722063616e2063616c6c20746869732066756e6374696f6040820152603760f91b606082015260800190565b6020808252601d908201527f496e76616c696420737461746520666f72207468697320616374696f6e000000604082015260600190565b60408101610dbb8285610c7e565b610c636020830184610c7e565b634e487b7160e01b5f52601160045260245ffd5b80820180821115610cac57610cac610dc8565b8082028115828204841417610cac57610cac610dc8565b5f82610e2057634e487b7160e01b5f52601260045260245ffd5b50049056fea2646970667358221220133a9903bc652909781d1f78886441d8b2541c8dd285155d9566e6061947e37864736f6c634300081c0033a2646970667358221220d8ff4619d722017b0c8c30ed8255180cf5a71fe53f894f6f93431d0591e6a3ea64736f6c634300081c0033",
  "linkReferences": {},
  "deployedLinkReferences": {},
  "immutableReferences": {},
  "inputSourceName": "project/contracts/CrowdfundingFactory.sol",
  "buildInfoId": "solc-0_8_28-5540e38edfda8c6d2e02880df7e6c25981eb23d1"
}